:060000000C943E000C947C
:1000060000000C9400000C9400000C9400000C946A
:1000160000000C9400000C9400000C9400000C945A
:100026006E000C9400000C9400000C9400000C94DC
:1000360000000C9400000C9400000C9400000C943A
:1000460000000C9400000C9400000C940000102793
:10005600E80364000A00010000100001100001001E
:1000660046726571656E63793D25640080C0020045
:100076007C0172000000F894EE27ECBBF1E0FBBFB8
:10008600EBBFE5BFF8E1F1BDE1BD8DE0A2E0BB2726
:10009600ED938A95E9F780E094E0A0E6ED93019769
:1000A600E9F7E4E7F0E085919591009761F0A59175
:1000B600B59105901590BF01F00105900D9201973D
:1000C600E1F7FB01F0CFEFE5EDBFE4E0EEBFC0E600
:1000D600D1E00C9489006A937A93AA93BA93EA932F
:1000E600FA93EFB7EA93A0E6B1E00E94D203EF5F7E
:1000F600FF4F6F4F7F4F0E94D703E991EFBFF991F2
:10010600E991B991A991799169911895E0E0E2BFD9
:10011600ECBFE3BFE1E0E9BFE0E1EA930E9414032C
:10012600E6E0E3BF7894E8EEF3E0FA93EA930E9400
:100136009503F894A0916001B091610180916201EC
:1001460090916301E0E0F1E060E070E00E94AE03B0
:10015600DF01CB01E2B7FF27662777270E94A503B9
:10016600E0936401F0936501609366017093670103
:10017600E8E6F1E0FA93EA93E6E6F0E0FA93EA932A
:10018600E0916401F09165016091660170916701EB
:100196000E94E00384E00E944A0228960E94C6025A
:1001A600E8E6F1E0FA93EA930E94F502E0E0E3BFA5
:1001B600E0E0F0E060E070E0E0936001F093610160
:1001C6006093620170936301E2BFAACFFFCF5D9B8C
:1001D600FECFE881ECB90C9446031A930A93AC81DE
:1001E600BD810E94CE033097D9F0AA81BB810E94BF
:1001F600CE038F01309749F00230E0E01E0778F019
:10020600F80131978F01ED93FC93AC81BD81ED919F
:10021600FD913196FE93EE933197AE81A08303C094
:10022600EE81EA93D4DF19810881279608952697EF
:100236000E94E50310E0EA89FB893196EA8BFB8B85
:100246003197E4912E2FE03011F40C944602E12F01
:10025600E03039F4253211F411E002C00E945D034A
:1002660011C1E130A9F4253219F40E945D0309C1D8
:1002760012E040E000E02D3211F401E003C12B3220
:1002860011F44BE2FFC0203211F440E2FBC002C081
:10029600E23039F450E013E0203311F40068F2C084
:1002A60004C0E33011F00C944502203310F02A33D9
:1002B60008F009C0A52FEAE0EA9FF0015E2FE22FC1
:1002C600E0535E0FDFC0E22FE33649F40E94680375
:1002D600E889F989A481AA930E946E03D2C0E33704
:1002E60041F40E9468030E9478030E9448031E2F6F
:1002F6000AC0E03761F40E9468030E9478030E94F6
:1003060052031E2F086002600F7730E035C0E436D6
:1003160011F0E93611F4046002C0E53731F4E4E582
:10032600F0E0EE83FF8315E00DC0E83511F40860B8
:1003360004C0E83711F00C944402EEE5F0E0EE83D9
:10034600FF8314E002FF14C00E9468030E94820328
:10035600AB85AA233AF4EA85FB850E94AA03EA87BD
:10036600FB874DE2403011F01F5F01C00B7F04C0D8
:100376000E9468030E94820300FD11C0151778F4DD
:1003860007FF08C002FF04C00B7F242F115001C0D5
:1003960020E301C020E20E945D035150EFCF312FD0
:1003A60001FF1AC03030B9F003FF08C0EE81FF81AB
:1003B6003196EE83FF833197E49105C0AE81BF810C
:1003C600ED91AE83BF83EA930E946E03503009F02D
:1003D60051503150E7CF4BC020E3EE81FF810E94A0
:1003E600DC03E887F987EE81FF813296EE83FF838F
:1003F600E885F985AA85BB85AE17BF0750F02F5F44
:10040600A885B985EA85FB85EA1BFB0BEA87FB878E
:10041600EFCF2A3328F003FF02C0295F01C0295D10
:1004260004FD1AC0213320F4A885B985119709F473
:1004360009C0531710F000FF01C013C020E207FFE8
:100446000BC020E3006102FF07C00B7F4A930E94A6
:100456006E03503009F051500E945D03503009F090
:1004660051503150A885B985129708F0B5CF00FFD5
:1004760008C0503031F05150E0E2EA930E946E031A
:10048600F8CF10E0D8CE0E94EC0364960895FF9250
:10049600F82E22971A930A93DE010E94A1038D017A
:1004A600DE0116960E94A1030E94CE03EA83FB8317
:1004B600DE0114960E94A1030E94CE03FA93EA93EA
:1004C6001A930A93FE013696FA93EA93E0E0F0E077
:1004D600FA93EA93ACDEAA81BB81E0E0EC93198142
:1004E60008812496FF900895FFE0FA95F1F70895A4
:1004F600AAB3AF70AABBD99AD898F6DFDA9AF4DF16
:10050600A9B3DA98F1DFDA9AEFDFDA98A7FDF5CF2B
:100516000895A07FAB2BABBBDA9A0E947702DA98DC
:100526000E9477020895D998AAB3A76FAABBBBB356
:10053600BF70A881EEDFA881A295EBDFD99A0C9453
:100546004603DA9A0E947702E9B3DA980E947702A4
:10055600E07F08950E947702F4DFAE2FF2DFD9988C
:10056600E295EA2B08950E947B02E881F0E0E458C8
:10057600FE4FE081A981EA0FEA930E949602598014
:100586004880229608950E947B02E2E0EA930E9448
:1005960096020E947B02ECE0EA930E9496020E9479
:1005A6007B02E1E0EA930E949602E0E04E2E5E2E88
:1005B6000895EF93FF93A8816894AA3021F0E894F8
:1005C6005394751430F44394E0E0EA934A92CBDFF7
:1005D6002EF08EDFD89AA881AA93A5DFFF91EF911E
:1005E6000C9446031A93A981BA81ED91A983BA8323
:1005F6001E2FE03019F01A93DCDFF5CF1881239611
:100606000895AA27BB271197F1F70895D998AAB399
:10061600A76FAABBBBB3BF70A8810E948C02D99AF0
:1006260032C0DA98D8987880E881E058E0937E0165
:10063600E881E054E0937F010E948A030E948A03C6
:100646000E948A03DEDFE0E2EA93E0DFDADFE8E237
:100656000E949003E4E00E949003E5E80E94900364
:10066600AAB3AF70AABBD99A0E94AD02E53011F0C9
:10067600E0E009C00E947B02E6E0EA930E9496024F
:100686000E94C602E1E021960895A991B991EE274C
:10069600FF276D91662311F03196FBCF0895AA27A7
:1006A600BB27E991F9910590002011F01196FBCF37
:1006B600FD0108952A93EF85F889FA93EA93FE01DE
:1006C6003F96FA93EA930C94F000E889F9893497F7
:1006D600E88BF98B0895EF85F889FA93EA93FE0182
:1006E6003F96FA93EA930C94F000A889B989149678
:1006F6000E94CE03EE83FF83FA93EA930895A889B6
:10070600B98914960E94CE03EA87FB8708950E9452
:100716000403E0E3EA930C940903EA930E94960229
:100726000C940403E991F991309639F080ED97E045
:100736000197F1F7A8953197C9F708950024AF0DF1
:10074600B01D0895EA0FFB1F681F791F0895F195E4
:10075600E195F04008957A9F702D6B9F700DF89F7C
:10076600700DE99F700D6A9F602D710DFB9F600DE6
:10077600711DE89F600D711D8827FA9FF02D610D90
:10078600781FEB9FF00D611D781FEA9FE02DF10D9C
:10079600681F781F0895ED91FC9111970895ED91CA
:1007A600FD916D917D9108957E936E93FE93EE93E8
:1007B60008950590F491E02D08957A936A93FA933B
:1007C600EA9308955A934A933A932A931A930A936B
:1007D60008955D814C813B812A81198108810895A4
:00000001FF
