:0C0000000C943D000C9400000C940000D7
:10000C000C9400000C9400000C9400000C94000064
:10001C000C9400000C9400000C9400000C94000054
:10002C000C9400000C9400000C9400000C94000044
:10003C000C9400000C9400000C9400000C94000034
:10004C000C9400000C940000414243444546474840
:10005C00494A4B4C4D4E4F505152535400555657E4
:10006C0058595A0080C00200600270000000F894D9
:10007C00EE27ECBBF1E0FBBFEBBFE5BF8DE0A2E0F0
:10008C00BB27ED938A95E9F780E098E0A0E6ED9325
:10009C000197E9F7E2E7F0E085919591009761F01F
:1000AC00A591B59105901590BF01F00105900D92A9
:1000BC000197E1F7FB01F0CFEFE5EDBFE8E0EEBF14
:1000CC00C0E6D2E00C946A00A4E16BD038D0A4E571
:1000DC00B0E054D0E0E0EA93A1E024D0A9E6B0E08F
:1000EC004DD0FFCFAA93EBB3EF70AE2FE881E07F3A
:1000FC00EA2BEBBB82E08A95F1F7DA9A82E08A95DB
:10010C00F1F7DA9882E08A95F1F773C0AA93A88187
:10011C00E9DFE881E295E883A881E4DF81E18A9553
:10012C00F1F767C0AA93E881F0E0E05AFD4FE08157
:10013C00A981AE0FEBDF5980488022960895A2E08A
:10014C005AD0ACE0E3DFA1E056D0E0E04E2E5E2EBC
:10015C000895AA93A881AA3011F0571448F0E0E052
:10016C00EA934394A42DDEDFA881AA3009F441C0A0
:10017C005394D89AA881CADFD8983BC0BA93AA9353
:10018C001A93E981FA813196E983FA833197E491E4
:10019C001E2FE03019F0A12FDCDFF3CF188123964E
:1001AC000895AA93EAB3E06FEABBD29AD09AD19A97
:1001BC00DA98D898D9987880E881E058E093620270
:1001CC00E881E054E0936302A4E1B0E00E940C01EA
:1001DC0017D016D015D0A0E285DF81E28A95F1F711
:1001EC00A8E294DFA4E092DFA5E890DFA6E08EDF22
:1001FC00A6DF219608958ADFA3E0B0E00C940C01F1
:10020C00A0E370DF81E28A95F1F70895109639F03A
:10021C008AEF90E00197F1F7A8951197C9F7089527
:00000001FF
