:060000000C942A000C9490
:1000060000000C9400000C9400000C9400000C946A
:1000160000000C9400000C9400000C9400000C945A
:1000260000000C9400000C9400000C9400000C944A
:1000360000000C9400000C9400000C9400000C943A
:1000460000000C9400000C9400000C940000F8943E
:10005600EE27ECBBF1E0FBBFEBBFE5BF8DE0A2E016
:10006600BB27ED938A95E9F780E094E0A0E6ED934F
:100076000197E9F7EFE5EDBFE4E0EEBFC0E6D1E0BA
:100086000C944500E0E0EABBEFEFEBBBE7BBE0E03A
:10009600E8BBC89917C0C99B15C016D01BD020D085
:1000A60025D02AD02FD034D0E0E8E8BBA4E6B0E0D3
:1000B6000E9491002DD026D01FD018D011D00AD082
:1000C60003D0E9CFE6CFFFCFE1E0E8BBA4E6B0E09E
:1000D6000C949100E2E0E8BBA4E6B0E00C94910039
:1000E600E4E0E8BBA4E6B0E00C949100E8E0E8BBED
:1000F600A4E6B0E00C949100E0E1E8BBA4E6B0E031
:100106000C949100E0E2E8BBA4E6B0E00C94910008
:10011600E0E4E8BBA4E6B0E00C949100109639F058
:1001260088EB9BE00197F1F7A8951197C9F7089519
:00000001FF
